{
  "_format": "hh-sol-artifact-1",
  "contractName": "Token",
  "sourceName": "contracts/Token.sol",
  "abi": [
    {
      "inputs": [
        {
          "internalType": "uint256",
          "name": "initialSupply",
          "type": "uint256"
        }
      ],
      "stateMutability": "nonpayable",
      "type": "constructor"
    },
    {
      "anonymous": false,
      "inputs": [
        {
          "indexed": true,
          "internalType": "address",
          "name": "owner",
          "type": "address"
        },
        {
          "indexed": true,
          "internalType": "address",
          "name": "spender",
          "type": "address"
        },
        {
          "indexed": false,
          "internalType": "uint256",
          "name": "value",
          "type": "uint256"
        }
      ],
      "name": "Approval",
      "type": "event"
    },
    {
      "anonymous": false,
      "inputs": [
        {
          "indexed": true,
          "internalType": "address",
          "name": "previousOwner",
          "type": "address"
        },
        {
          "indexed": true,
          "internalType": "address",
          "name": "newOwner",
          "type": "address"
        }
      ],
      "name": "OwnershipTransferred",
      "type": "event"
    },
    {
      "anonymous": false,
      "inputs": [
        {
          "indexed": true,
          "internalType": "address",
          "name": "from",
          "type": "address"
        },
        {
          "indexed": true,
          "internalType": "address",
          "name": "to",
          "type": "address"
        },
        {
          "indexed": false,
          "internalType": "uint256",
          "name": "value",
          "type": "uint256"
        }
      ],
      "name": "Transfer",
      "type": "event"
    },
    {
      "inputs": [
        {
          "internalType": "address",
          "name": "owner",
          "type": "address"
        },
        {
          "internalType": "address",
          "name": "spender",
          "type": "address"
        }
      ],
      "name": "allowance",
      "outputs": [
        {
          "internalType": "uint256",
          "name": "",
          "type": "uint256"
        }
      ],
      "stateMutability": "view",
      "type": "function"
    },
    {
      "inputs": [
        {
          "internalType": "address",
          "name": "spender",
          "type": "address"
        },
        {
          "internalType": "uint256",
          "name": "amount",
          "type": "uint256"
        }
      ],
      "name": "approve",
      "outputs": [
        {
          "internalType": "bool",
          "name": "",
          "type": "bool"
        }
      ],
      "stateMutability": "nonpayable",
      "type": "function"
    },
    {
      "inputs": [
        {
          "internalType": "address",
          "name": "account",
          "type": "address"
        }
      ],
      "name": "balanceOf",
      "outputs": [
        {
          "internalType": "uint256",
          "name": "",
          "type": "uint256"
        }
      ],
      "stateMutability": "view",
      "type": "function"
    },
    {
      "inputs": [],
      "name": "decimals",
      "outputs": [
        {
          "internalType": "uint8",
          "name": "",
          "type": "uint8"
        }
      ],
      "stateMutability": "view",
      "type": "function"
    },
    {
      "inputs": [
        {
          "internalType": "address",
          "name": "spender",
          "type": "address"
        },
        {
          "internalType": "uint256",
          "name": "subtractedValue",
          "type": "uint256"
        }
      ],
      "name": "decreaseAllowance",
      "outputs": [
        {
          "internalType": "bool",
          "name": "",
          "type": "bool"
        }
      ],
      "stateMutability": "nonpayable",
      "type": "function"
    },
    {
      "inputs": [
        {
          "internalType": "address",
          "name": "spender",
          "type": "address"
        },
        {
          "internalType": "uint256",
          "name": "addedValue",
          "type": "uint256"
        }
      ],
      "name": "increaseAllowance",
      "outputs": [
        {
          "internalType": "bool",
          "name": "",
          "type": "bool"
        }
      ],
      "stateMutability": "nonpayable",
      "type": "function"
    },
    {
      "inputs": [],
      "name": "isPaused",
      "outputs": [
        {
          "internalType": "bool",
          "name": "",
          "type": "bool"
        }
      ],
      "stateMutability": "view",
      "type": "function"
    },
    {
      "inputs": [],
      "name": "name",
      "outputs": [
        {
          "internalType": "string",
          "name": "",
          "type": "string"
        }
      ],
      "stateMutability": "view",
      "type": "function"
    },
    {
      "inputs": [],
      "name": "owner",
      "outputs": [
        {
          "internalType": "address",
          "name": "",
          "type": "address"
        }
      ],
      "stateMutability": "view",
      "type": "function"
    },
    {
      "inputs": [],
      "name": "paused",
      "outputs": [
        {
          "internalType": "bool",
          "name": "",
          "type": "bool"
        }
      ],
      "stateMutability": "view",
      "type": "function"
    },
    {
      "inputs": [],
      "name": "renounceOwnership",
      "outputs": [],
      "stateMutability": "nonpayable",
      "type": "function"
    },
    {
      "inputs": [],
      "name": "symbol",
      "outputs": [
        {
          "internalType": "string",
          "name": "",
          "type": "string"
        }
      ],
      "stateMutability": "view",
      "type": "function"
    },
    {
      "inputs": [],
      "name": "togglePause",
      "outputs": [
        {
          "internalType": "bool",
          "name": "",
          "type": "bool"
        }
      ],
      "stateMutability": "nonpayable",
      "type": "function"
    },
    {
      "inputs": [],
      "name": "totalSupply",
      "outputs": [
        {
          "internalType": "uint256",
          "name": "",
          "type": "uint256"
        }
      ],
      "stateMutability": "view",
      "type": "function"
    },
    {
      "inputs": [
        {
          "internalType": "address",
          "name": "to",
          "type": "address"
        },
        {
          "internalType": "uint256",
          "name": "amount",
          "type": "uint256"
        }
      ],
      "name": "transfer",
      "outputs": [
        {
          "internalType": "bool",
          "name": "",
          "type": "bool"
        }
      ],
      "stateMutability": "nonpayable",
      "type": "function"
    },
    {
      "inputs": [
        {
          "internalType": "address",
          "name": "from",
          "type": "address"
        },
        {
          "internalType": "address",
          "name": "to",
          "type": "address"
        },
        {
          "internalType": "uint256",
          "name": "amount",
          "type": "uint256"
        }
      ],
      "name": "transferFrom",
      "outputs": [
        {
          "internalType": "bool",
          "name": "",
          "type": "bool"
        }
      ],
      "stateMutability": "nonpayable",
      "type": "function"
    },
    {
      "inputs": [
        {
          "internalType": "address",
          "name": "newOwner",
          "type": "address"
        }
      ],
      "name": "transferOwnership",
      "outputs": [],
      "stateMutability": "nonpayable",
      "type": "function"
    }
  ],
  "bytecode": "0x60806040526000600560146101000a81548160ff0219169083151502179055503480156200002c57600080fd5b5060405162001e5838038062001e588339818101604052810190620000529190620004a8565b6040518060400160405280601381526020017f43726f77642046756e64696e6720546f6b656e000000000000000000000000008152506040518060400160405280600581526020017f43524f57440000000000000000000000000000000000000000000000000000008152508160039080519060200190620000d6929190620003e1565b508060049080519060200190620000ef929190620003e1565b50505062000112620001066200012b60201b60201c565b6200013360201b60201c565b620001243382620001f960201b60201c565b50620006f0565b600033905090565b6000600560009054906101000a900473ffffffffffffffffffffffffffffffffffffffff16905081600560006101000a81548173ffffffffffffffffffffffffffffffffffffffff021916908373ffffffffffffffffffffffffffffffffffffffff1602179055508173ffffffffffffffffffffffffffffffffffffffff168173ffffffffffffffffffffffffffffffffffffffff167f8be0079c531659141344cd1fd0a4f28419497f9722a3daafe3b4186f6b6457e060405160405180910390a35050565b600073ffffffffffffffffffffffffffffffffffffffff168273ffffffffffffffffffffffffffffffffffffffff1614156200026c576040517f08c379a000000000000000000000000000000000000000000000000000000000815260040162000263906200058b565b60405180910390fd5b62000280600083836200036760201b60201c565b8060026000828254620002949190620005db565b92505081905550806000808473ffffffffffffffffffffffffffffffffffffffff1673ffffffffffffffffffffffffffffffffffffffff168152602001908152602001600020600082825401925050819055508173ffffffffffffffffffffffffffffffffffffffff16600073ffffffffffffffffffffffffffffffffffffffff167fddf252ad1be2c89b69c2b068fc378daa952ba7f163c4a11628f55a4df523b3ef83604051620003479190620005ad565b60405180910390a36200036360008383620003d760201b60201c565b5050565b600560149054906101000a900460ff1615620003ba576040517f08c379a0000000000000000000000000000000000000000000000000000000008152600401620003b19062000569565b60405180910390fd5b620003d2838383620003dc60201b620007ed1760201c565b505050565b505050565b505050565b828054620003ef9062000642565b90600052602060002090601f0160209004810192826200041357600085556200045f565b82601f106200042e57805160ff19168380011785556200045f565b828001600101855582156200045f579182015b828111156200045e57825182559160200191906001019062000441565b5b5090506200046e919062000472565b5090565b5b808211156200048d57600081600090555060010162000473565b5090565b600081519050620004a281620006d6565b92915050565b600060208284031215620004bb57600080fd5b6000620004cb8482850162000491565b91505092915050565b6000620004e3601a83620005ca565b91507f546f6b656e205472616e736665727320617265207061757365640000000000006000830152602082019050919050565b600062000525601f83620005ca565b91507f45524332303a206d696e7420746f20746865207a65726f2061646472657373006000830152602082019050919050565b620005638162000638565b82525050565b600060208201905081810360008301526200058481620004d4565b9050919050565b60006020820190508181036000830152620005a68162000516565b9050919050565b6000602082019050620005c4600083018462000558565b92915050565b600082825260208201905092915050565b6000620005e88262000638565b9150620005f58362000638565b9250827fffffffffffffffffffffffffffffffffffffffffffffffffffffffffffffffff038211156200062d576200062c62000678565b5b828201905092915050565b6000819050919050565b600060028204905060018216806200065b57607f821691505b60208210811415620006725762000671620006a7565b5b50919050565b7f4e487b7100000000000000000000000000000000000000000000000000000000600052601160045260246000fd5b7f4e487b7100000000000000000000000000000000000000000000000000000000600052602260045260246000fd5b620006e18162000638565b8114620006ed57600080fd5b50565b61175880620007006000396000f3fe608060405234801561001057600080fd5b506004361061010b5760003560e01c8063715018a6116100a2578063a9059cbb11610071578063a9059cbb146102be578063b187bd26146102ee578063c4ae31681461030c578063dd62ed3e1461032a578063f2fde38b1461035a5761010b565b8063715018a6146102485780638da5cb5b1461025257806395d89b4114610270578063a457c2d71461028e5761010b565b8063313ce567116100de578063313ce567146101ac57806339509351146101ca5780635c975abb146101fa57806370a08231146102185761010b565b806306fdde0314610110578063095ea7b31461012e57806318160ddd1461015e57806323b872dd1461017c575b600080fd5b610118610376565b60405161012591906113c1565b60405180910390f35b61014860048036038101906101439190610f50565b610408565b60405161015591906113a6565b60405180910390f35b61016661042b565b6040516101739190611523565b60405180910390f35b61019660048036038101906101919190610f01565b610435565b6040516101a391906113a6565b60405180910390f35b6101b4610464565b6040516101c1919061153e565b60405180910390f35b6101e460048036038101906101df9190610f50565b61046d565b6040516101f191906113a6565b60405180910390f35b6102026104a4565b60405161020f91906113a6565b60405180910390f35b610232600480360381019061022d9190610e9c565b6104b7565b60405161023f9190611523565b60405180910390f35b6102506104ff565b005b61025a610513565b604051610267919061138b565b60405180910390f35b61027861053d565b60405161028591906113c1565b60405180910390f35b6102a860048036038101906102a39190610f50565b6105cf565b6040516102b591906113a6565b60405180910390f35b6102d860048036038101906102d39190610f50565b610646565b6040516102e591906113a6565b60405180910390f35b6102f6610669565b60405161030391906113a6565b60405180910390f35b610314610680565b60405161032191906113a6565b60405180910390f35b610344600480360381019061033f9190610ec5565b6106e2565b6040516103519190611523565b60405180910390f35b610374600480360381019061036f9190610e9c565b610769565b005b60606003805461038590611653565b80601f01602080910402602001604051908101604052809291908181526020018280546103b190611653565b80156103fe5780601f106103d3576101008083540402835291602001916103fe565b820191906000526020600020905b8154815290600101906020018083116103e157829003601f168201915b5050505050905090565b6000806104136107f2565b90506104208185856107fa565b600191505092915050565b6000600254905090565b6000806104406107f2565b905061044d8582856109c5565b610458858585610a51565b60019150509392505050565b60006012905090565b6000806104786107f2565b905061049981858561048a85896106e2565b6104949190611575565b6107fa565b600191505092915050565b600560149054906101000a900460ff1681565b60008060008373ffffffffffffffffffffffffffffffffffffffff1673ffffffffffffffffffffffffffffffffffffffff168152602001908152602001600020549050919050565b610507610cc9565b6105116000610d47565b565b6000600560009054906101000a900473ffffffffffffffffffffffffffffffffffffffff16905090565b60606004805461054c90611653565b80601f016020809104026020016040519081016040528092919081815260200182805461057890611653565b80156105c55780601f1061059a576101008083540402835291602001916105c5565b820191906000526020600020905b8154815290600101906020018083116105a857829003601f168201915b5050505050905090565b6000806105da6107f2565b905060006105e882866106e2565b90508381101561062d576040517f08c379a000000000000000000000000000000000000000000000000000000000815260040161062490611503565b60405180910390fd5b61063a82868684036107fa565b60019250505092915050565b6000806106516107f2565b905061065e818585610a51565b600191505092915050565b6000600560149054906101000a900460ff16905090565b600061068a610cc9565b600560149054906101000a900460ff16156106bf576000600560146101000a81548160ff0219169083151502179055506106db565b6001600560146101000a81548160ff0219169083151502179055505b6001905090565b6000600160008473ffffffffffffffffffffffffffffffffffffffff1673ffffffffffffffffffffffffffffffffffffffff16815260200190815260200160002060008373ffffffffffffffffffffffffffffffffffffffff1673ffffffffffffffffffffffffffffffffffffffff16815260200190815260200160002054905092915050565b610771610cc9565b600073ffffffffffffffffffffffffffffffffffffffff168173ffffffffffffffffffffffffffffffffffffffff1614156107e1576040517f08c379a00000000000000000000000000000000000000000000000000000000081526004016107d890611403565b60405180910390fd5b6107ea81610d47565b50565b505050565b600033905090565b600073ffffffffffffffffffffffffffffffffffffffff168373ffffffffffffffffffffffffffffffffffffffff16141561086a576040517f08c379a0000000000000000000000000000000000000000000000000000000008152600401610861906114e3565b60405180910390fd5b600073ffffffffffffffffffffffffffffffffffffffff168273ffffffffffffffffffffffffffffffffffffffff1614156108da576040517f08c379a00000000000000000000000000000000000000000000000000000000081526004016108d190611423565b60405180910390fd5b80600160008573ffffffffffffffffffffffffffffffffffffffff1673ffffffffffffffffffffffffffffffffffffffff16815260200190815260200160002060008473ffffffffffffffffffffffffffffffffffffffff1673ffffffffffffffffffffffffffffffffffffffff168152602001908152602001600020819055508173ffffffffffffffffffffffffffffffffffffffff168373ffffffffffffffffffffffffffffffffffffffff167f8c5be1e5ebec7d5bd14f71427d1e84f3dd0314c0f7b2291e5b200ac8c7c3b925836040516109b89190611523565b60405180910390a3505050565b60006109d184846106e2565b90507fffffffffffffffffffffffffffffffffffffffffffffffffffffffffffffffff8114610a4b5781811015610a3d576040517f08c379a0000000000000000000000000000000000000000000000000000000008152600401610a3490611443565b60405180910390fd5b610a4a84848484036107fa565b5b50505050565b600073ffffffffffffffffffffffffffffffffffffffff168373ffffffffffffffffffffffffffffffffffffffff161415610ac1576040517f08c379a0000000000000000000000000000000000000000000000000000000008152600401610ab8906114c3565b60405180910390fd5b600073ffffffffffffffffffffffffffffffffffffffff168273ffffffffffffffffffffffffffffffffffffffff161415610b31576040517f08c379a0000000000000000000000000000000000000000000000000000000008152600401610b28906113e3565b60405180910390fd5b610b3c838383610e0d565b60008060008573ffffffffffffffffffffffffffffffffffffffff1673ffffffffffffffffffffffffffffffffffffffff16815260200190815260200160002054905081811015610bc2576040517f08c379a0000000000000000000000000000000000000000000000000000000008152600401610bb990611463565b60405180910390fd5b8181036000808673ffffffffffffffffffffffffffffffffffffffff1673ffffffffffffffffffffffffffffffffffffffff16815260200190815260200160002081905550816000808573ffffffffffffffffffffffffffffffffffffffff1673ffffffffffffffffffffffffffffffffffffffff168152602001908152602001600020600082825401925050819055508273ffffffffffffffffffffffffffffffffffffffff168473ffffffffffffffffffffffffffffffffffffffff167fddf252ad1be2c89b69c2b068fc378daa952ba7f163c4a11628f55a4df523b3ef84604051610cb09190611523565b60405180910390a3610cc3848484610e6d565b50505050565b610cd16107f2565b73ffffffffffffffffffffffffffffffffffffffff16610cef610513565b73ffffffffffffffffffffffffffffffffffffffff1614610d45576040517f08c379a0000000000000000000000000000000000000000000000000000000008152600401610d3c906114a3565b60405180910390fd5b565b6000600560009054906101000a900473ffffffffffffffffffffffffffffffffffffffff16905081600560006101000a81548173ffffffffffffffffffffffffffffffffffffffff021916908373ffffffffffffffffffffffffffffffffffffffff1602179055508173ffffffffffffffffffffffffffffffffffffffff168173ffffffffffffffffffffffffffffffffffffffff167f8be0079c531659141344cd1fd0a4f28419497f9722a3daafe3b4186f6b6457e060405160405180910390a35050565b600560149054906101000a900460ff1615610e5d576040517f08c379a0000000000000000000000000000000000000000000000000000000008152600401610e5490611483565b60405180910390fd5b610e688383836107ed565b505050565b505050565b600081359050610e81816116f4565b92915050565b600081359050610e968161170b565b92915050565b600060208284031215610eae57600080fd5b6000610ebc84828501610e72565b91505092915050565b60008060408385031215610ed857600080fd5b6000610ee685828601610e72565b9250506020610ef785828601610e72565b9150509250929050565b600080600060608486031215610f1657600080fd5b6000610f2486828701610e72565b9350506020610f3586828701610e72565b9250506040610f4686828701610e87565b9150509250925092565b60008060408385031215610f6357600080fd5b6000610f7185828601610e72565b9250506020610f8285828601610e87565b9150509250929050565b610f95816115cb565b82525050565b610fa4816115dd565b82525050565b6000610fb582611559565b610fbf8185611564565b9350610fcf818560208601611620565b610fd8816116e3565b840191505092915050565b6000610ff0602383611564565b91507f45524332303a207472616e7366657220746f20746865207a65726f206164647260008301527f65737300000000000000000000000000000000000000000000000000000000006020830152604082019050919050565b6000611056602683611564565b91507f4f776e61626c653a206e6577206f776e657220697320746865207a65726f206160008301527f64647265737300000000000000000000000000000000000000000000000000006020830152604082019050919050565b60006110bc602283611564565b91507f45524332303a20617070726f766520746f20746865207a65726f20616464726560008301527f73730000000000000000000000000000000000000000000000000000000000006020830152604082019050919050565b6000611122601d83611564565b91507f45524332303a20696e73756666696369656e7420616c6c6f77616e63650000006000830152602082019050919050565b6000611162602683611564565b91507f45524332303a207472616e7366657220616d6f756e742065786365656473206260008301527f616c616e636500000000000000000000000000000000000000000000000000006020830152604082019050919050565b60006111c8601a83611564565b91507f546f6b656e205472616e736665727320617265207061757365640000000000006000830152602082019050919050565b6000611208602083611564565b91507f4f776e61626c653a2063616c6c6572206973206e6f7420746865206f776e65726000830152602082019050919050565b6000611248602583611564565b91507f45524332303a207472616e736665722066726f6d20746865207a65726f20616460008301527f64726573730000000000000000000000000000000000000000000000000000006020830152604082019050919050565b60006112ae602483611564565b91507f45524332303a20617070726f76652066726f6d20746865207a65726f2061646460008301527f72657373000000000000000000000000000000000000000000000000000000006020830152604082019050919050565b6000611314602583611564565b91507f45524332303a2064656372656173656420616c6c6f77616e63652062656c6f7760008301527f207a65726f0000000000000000000000000000000000000000000000000000006020830152604082019050919050565b61137681611609565b82525050565b61138581611613565b82525050565b60006020820190506113a06000830184610f8c565b92915050565b60006020820190506113bb6000830184610f9b565b92915050565b600060208201905081810360008301526113db8184610faa565b905092915050565b600060208201905081810360008301526113fc81610fe3565b9050919050565b6000602082019050818103600083015261141c81611049565b9050919050565b6000602082019050818103600083015261143c816110af565b9050919050565b6000602082019050818103600083015261145c81611115565b9050919050565b6000602082019050818103600083015261147c81611155565b9050919050565b6000602082019050818103600083015261149c816111bb565b9050919050565b600060208201905081810360008301526114bc816111fb565b9050919050565b600060208201905081810360008301526114dc8161123b565b9050919050565b600060208201905081810360008301526114fc816112a1565b9050919050565b6000602082019050818103600083015261151c81611307565b9050919050565b6000602082019050611538600083018461136d565b92915050565b6000602082019050611553600083018461137c565b92915050565b600081519050919050565b600082825260208201905092915050565b600061158082611609565b915061158b83611609565b9250827fffffffffffffffffffffffffffffffffffffffffffffffffffffffffffffffff038211156115c0576115bf611685565b5b828201905092915050565b60006115d6826115e9565b9050919050565b60008115159050919050565b600073ffffffffffffffffffffffffffffffffffffffff82169050919050565b6000819050919050565b600060ff82169050919050565b60005b8381101561163e578082015181840152602081019050611623565b8381111561164d576000848401525b50505050565b6000600282049050600182168061166b57607f821691505b6020821081141561167f5761167e6116b4565b5b50919050565b7f4e487b7100000000000000000000000000000000000000000000000000000000600052601160045260246000fd5b7f4e487b7100000000000000000000000000000000000000000000000000000000600052602260045260246000fd5b6000601f19601f8301169050919050565b6116fd816115cb565b811461170857600080fd5b50565b61171481611609565b811461171f57600080fd5b5056fea26469706673582212200c26fc2ee4d2889781ea60d6188fa5904867b5b486018d68f77c2b9eaf01cfdc64736f6c63430008000033",
  "linkReferences": {},
  "deployedLinkReferences": {}
}