{
  "_format": "hh-sol-artifact-1",
  "contractName": "ProjectFunder",
  "sourceName": "contracts/ProjectFunder.sol",
  "abi": [
    {
      "inputs": [
        {
          "internalType": "address",
          "name": "_token",
          "type": "address"
        }
      ],
      "stateMutability": "nonpayable",
      "type": "constructor"
    },
    {
      "anonymous": false,
      "inputs": [
        {
          "indexed": true,
          "internalType": "address",
          "name": "_user",
          "type": "address"
        },
        {
          "indexed": false,
          "internalType": "uint256",
          "name": "amount",
          "type": "uint256"
        },
        {
          "indexed": false,
          "internalType": "uint256",
          "name": "when",
          "type": "uint256"
        }
      ],
      "name": "ContributeToProject",
      "type": "event"
    },
    {
      "anonymous": false,
      "inputs": [
        {
          "indexed": true,
          "internalType": "address",
          "name": "_user",
          "type": "address"
        },
        {
          "indexed": false,
          "internalType": "string",
          "name": "_name",
          "type": "string"
        },
        {
          "indexed": false,
          "internalType": "uint256",
          "name": "when",
          "type": "uint256"
        }
      ],
      "name": "CreateProject",
      "type": "event"
    },
    {
      "anonymous": false,
      "inputs": [
        {
          "indexed": true,
          "internalType": "address",
          "name": "previousOwner",
          "type": "address"
        },
        {
          "indexed": true,
          "internalType": "address",
          "name": "newOwner",
          "type": "address"
        }
      ],
      "name": "OwnershipTransferred",
      "type": "event"
    },
    {
      "anonymous": false,
      "inputs": [
        {
          "indexed": true,
          "internalType": "address",
          "name": "_user",
          "type": "address"
        },
        {
          "indexed": false,
          "internalType": "uint256",
          "name": "amount",
          "type": "uint256"
        },
        {
          "indexed": false,
          "internalType": "uint256",
          "name": "when",
          "type": "uint256"
        }
      ],
      "name": "Withdraw",
      "type": "event"
    },
    {
      "inputs": [
        {
          "internalType": "string",
          "name": "_name",
          "type": "string"
        },
        {
          "internalType": "uint256",
          "name": "_amount",
          "type": "uint256"
        }
      ],
      "name": "contribute",
      "outputs": [],
      "stateMutability": "nonpayable",
      "type": "function"
    },
    {
      "inputs": [
        {
          "internalType": "string",
          "name": "_name",
          "type": "string"
        },
        {
          "internalType": "uint256",
          "name": "_deadline",
          "type": "uint256"
        },
        {
          "internalType": "uint256",
          "name": "_fundingGoal",
          "type": "uint256"
        },
        {
          "internalType": "uint256",
          "name": "_contributorLimit",
          "type": "uint256"
        }
      ],
      "name": "createProject",
      "outputs": [],
      "stateMutability": "nonpayable",
      "type": "function"
    },
    {
      "inputs": [],
      "name": "getOwner",
      "outputs": [
        {
          "internalType": "address",
          "name": "",
          "type": "address"
        }
      ],
      "stateMutability": "nonpayable",
      "type": "function"
    },
    {
      "inputs": [
        {
          "internalType": "string",
          "name": "_ProjectName",
          "type": "string"
        },
        {
          "internalType": "address",
          "name": "user",
          "type": "address"
        }
      ],
      "name": "getUserContributions",
      "outputs": [
        {
          "internalType": "uint256",
          "name": "",
          "type": "uint256"
        }
      ],
      "stateMutability": "nonpayable",
      "type": "function"
    },
    {
      "inputs": [],
      "name": "owner",
      "outputs": [
        {
          "internalType": "address",
          "name": "",
          "type": "address"
        }
      ],
      "stateMutability": "view",
      "type": "function"
    },
    {
      "inputs": [],
      "name": "renounceOwnership",
      "outputs": [],
      "stateMutability": "nonpayable",
      "type": "function"
    },
    {
      "inputs": [],
      "name": "token",
      "outputs": [
        {
          "internalType": "contract IERC20",
          "name": "",
          "type": "address"
        }
      ],
      "stateMutability": "view",
      "type": "function"
    },
    {
      "inputs": [
        {
          "internalType": "address",
          "name": "newOwner",
          "type": "address"
        }
      ],
      "name": "transferOwnership",
      "outputs": [],
      "stateMutability": "nonpayable",
      "type": "function"
    },
    {
      "inputs": [
        {
          "internalType": "string",
          "name": "_name",
          "type": "string"
        }
      ],
      "name": "withdraw",
      "outputs": [],
      "stateMutability": "nonpayable",
      "type": "function"
    }
  ],
  "bytecode": "0x60a06040523480156200001157600080fd5b506040516200215638038062002156833981810160405281019062000037919062000178565b620000576200004b6200009560201b60201c565b6200009d60201b60201c565b8073ffffffffffffffffffffffffffffffffffffffff1660808173ffffffffffffffffffffffffffffffffffffffff1660601b8152505050620001fd565b600033905090565b60008060009054906101000a900473ffffffffffffffffffffffffffffffffffffffff169050816000806101000a81548173ffffffffffffffffffffffffffffffffffffffff021916908373ffffffffffffffffffffffffffffffffffffffff1602179055508173ffffffffffffffffffffffffffffffffffffffff168173ffffffffffffffffffffffffffffffffffffffff167f8be0079c531659141344cd1fd0a4f28419497f9722a3daafe3b4186f6b6457e060405160405180910390a35050565b6000815190506200017281620001e3565b92915050565b600060208284031215620001915762000190620001de565b5b6000620001a18482850162000161565b91505092915050565b6000620001b782620001be565b9050919050565b600073ffffffffffffffffffffffffffffffffffffffff82169050919050565b600080fd5b620001ee81620001aa565b8114620001fa57600080fd5b50565b60805160601c611f2562000231600039600081816103e4015281816107b401528181610ba60152610e050152611f256000f3fe608060405234801561001057600080fd5b50600436106100935760003560e01c80638da5cb5b116100665780638da5cb5b146100f8578063ae817f9a14610116578063c4e0a25214610132578063f2fde38b14610162578063fc0c546a1461017e57610093565b806331fb67c214610098578063610a6a2a146100b4578063715018a6146100d0578063893d20e8146100da575b600080fd5b6100b260048036038101906100ad9190611132565b61019c565b005b6100ce60048036038101906100c99190611233565b610546565b005b6100d861071e565b005b6100e2610732565b6040516100ef919061157b565b60405180910390f35b610100610741565b60405161010d919061157b565b60405180910390f35b610130600480360381019061012b91906111d7565b61076a565b005b61014c6004803603810190610147919061117b565b610caa565b604051610159919061182a565b60405180910390f35b61017c600480360381019061017791906110d8565b610d7f565b005b610186610e03565b604051610193919061161f565b60405180910390f35b806000815114156101e2576040517f08c379a00000000000000000000000000000000000000000000000000000000081526004016101d99061176a565b60405180910390fd5b600115156001836040516101f69190611564565b908152602001604051809103902060050160009054906101000a900460ff16151514610257576040517f08c379a000000000000000000000000000000000000000000000000000000000815260040161024e9061168a565b60405180910390fd5b426001836040516102689190611564565b90815260200160405180910390206001015411156102bb576040517f08c379a00000000000000000000000000000000000000000000000000000000081526004016102b29061180a565b60405180910390fd5b6001826040516102cb9190611564565b9081526020016040518091039020600201546001836040516102ed9190611564565b9081526020016040518091039020600301541061033f576040517f08c379a0000000000000000000000000000000000000000000000000000000008152600401610336906116aa565b60405180910390fd5b6000600260003373ffffffffffffffffffffffffffffffffffffffff1673ffffffffffffffffffffffffffffffffffffffff1681526020019081526020016000208360405161038e9190611564565b9081526020016040518091039020549050600081116103e2576040517f08c379a00000000000000000000000000000000000000000000000000000000081526004016103d9906117ea565b60405180910390fd5b7f000000000000000000000000000000000000000000000000000000000000000073ffffffffffffffffffffffffffffffffffffffff1663a9059cbb33836040518363ffffffff1660e01b815260040161043d9291906115f6565b602060405180830381600087803b15801561045757600080fd5b505af115801561046b573d6000803e3d6000fd5b505050506040513d601f19601f8201168201806040525081019061048f9190611105565b506000600260003373ffffffffffffffffffffffffffffffffffffffff1673ffffffffffffffffffffffffffffffffffffffff168152602001908152602001600020846040516104df9190611564565b9081526020016040518091039020819055503373ffffffffffffffffffffffffffffffffffffffff167ff279e6a1f5e320cca91135676d9cb6e44ca8a08c0b88342bcdb1144f6511b5688242604051610539929190611845565b60405180910390a2505050565b8360008151141561058c576040517f08c379a00000000000000000000000000000000000000000000000000000000081526004016105839061176a565b60405180910390fd5b610594610e27565b6001856040516105a49190611564565b908152602001604051809103902060050160009054906101000a900460ff1615610603576040517f08c379a00000000000000000000000000000000000000000000000000000000081526004016105fa9061178a565b60405180910390fd5b60006040518060c0016040528087815260200186815260200185815260200160008152602001848152602001600115158152509050806001876040516106499190611564565b90815260200160405180910390206000820151816000019080519060200190610673929190610f71565b506020820151816001015560408201518160020155606082015181600301556080820151816004015560a08201518160050160006101000a81548160ff0219169083151502179055509050506106c7610741565b73ffffffffffffffffffffffffffffffffffffffff167fb2030b61df2806f9c0d1c0c2998bfda04213986c819ed2ff79c230c5acf95402874260405161070e92919061163a565b60405180910390a2505050505050565b610726610e27565b6107306000610ea5565b565b600061073c610741565b905090565b60008060009054906101000a900473ffffffffffffffffffffffffffffffffffffffff16905090565b816000815114156107b0576040517f08c379a00000000000000000000000000000000000000000000000000000000081526004016107a79061176a565b60405180910390fd5b81807f000000000000000000000000000000000000000000000000000000000000000073ffffffffffffffffffffffffffffffffffffffff1663dd62ed3e33306040518363ffffffff1660e01b815260040161080d929190611596565b60206040518083038186803b15801561082557600080fd5b505afa158015610839573d6000803e3d6000fd5b505050506040513d601f19601f8201168201806040525081019061085d91906112b6565b101561089e576040517f08c379a0000000000000000000000000000000000000000000000000000000008152600401610895906117ca565b60405180910390fd5b600115156001856040516108b29190611564565b908152602001604051809103902060050160009054906101000a900460ff16151514610913576040517f08c379a000000000000000000000000000000000000000000000000000000000815260040161090a9061168a565b60405180910390fd5b426001856040516109249190611564565b90815260200160405180910390206001015411610976576040517f08c379a000000000000000000000000000000000000000000000000000000000815260040161096d9061172a565b60405180910390fd5b6001846040516109869190611564565b9081526020016040518091039020600201546001856040516109a89190611564565b908152602001604051809103902060030154106109fa576040517f08c379a00000000000000000000000000000000000000000000000000000000081526004016109f1906116ea565b60405180910390fd5b60008311610a3d576040517f08c379a0000000000000000000000000000000000000000000000000000000008152600401610a34906117aa565b60405180910390fd5b6000600185604051610a4f9190611564565b9081526020016040518091039020600401541115610b3257600184604051610a779190611564565b90815260200160405180910390206004015483600260003373ffffffffffffffffffffffffffffffffffffffff1673ffffffffffffffffffffffffffffffffffffffff16815260200190815260200160002086604051610ad79190611564565b908152602001604051809103902054610af091906118eb565b1115610b31576040517f08c379a0000000000000000000000000000000000000000000000000000000008152600401610b28906116ca565b60405180910390fd5b5b82600260003373ffffffffffffffffffffffffffffffffffffffff1673ffffffffffffffffffffffffffffffffffffffff16815260200190815260200160002085604051610b809190611564565b90815260200160405180910390206000828254610b9d91906118eb565b925050819055507f000000000000000000000000000000000000000000000000000000000000000073ffffffffffffffffffffffffffffffffffffffff166323b872dd3330866040518463ffffffff1660e01b8152600401610c01939291906115bf565b602060405180830381600087803b158015610c1b57600080fd5b505af1158015610c2f573d6000803e3d6000fd5b505050506040513d601f19601f82011682018060405250810190610c539190611105565b503373ffffffffffffffffffffffffffffffffffffffff167ff160665744ac46bd893efd8c6dc0d889bf806fb9d3fc5b2f58c0fc50d2cb46818442604051610c9c929190611845565b60405180910390a250505050565b60008073ffffffffffffffffffffffffffffffffffffffff168273ffffffffffffffffffffffffffffffffffffffff161415610d1b576040517f08c379a0000000000000000000000000000000000000000000000000000000008152600401610d129061170a565b60405180910390fd5b600260008373ffffffffffffffffffffffffffffffffffffffff1673ffffffffffffffffffffffffffffffffffffffff16815260200190815260200160002083604051610d689190611564565b908152602001604051809103902054905092915050565b610d87610e27565b600073ffffffffffffffffffffffffffffffffffffffff168173ffffffffffffffffffffffffffffffffffffffff161415610df7576040517f08c379a0000000000000000000000000000000000000000000000000000000008152600401610dee9061166a565b60405180910390fd5b610e0081610ea5565b50565b7f000000000000000000000000000000000000000000000000000000000000000081565b610e2f610f69565b73ffffffffffffffffffffffffffffffffffffffff16610e4d610741565b73ffffffffffffffffffffffffffffffffffffffff1614610ea3576040517f08c379a0000000000000000000000000000000000000000000000000000000008152600401610e9a9061174a565b60405180910390fd5b565b60008060009054906101000a900473ffffffffffffffffffffffffffffffffffffffff169050816000806101000a81548173ffffffffffffffffffffffffffffffffffffffff021916908373ffffffffffffffffffffffffffffffffffffffff1602179055508173ffffffffffffffffffffffffffffffffffffffff168173ffffffffffffffffffffffffffffffffffffffff167f8be0079c531659141344cd1fd0a4f28419497f9722a3daafe3b4186f6b6457e060405160405180910390a35050565b600033905090565b828054610f7d90611a01565b90600052602060002090601f016020900481019282610f9f5760008555610fe6565b82601f10610fb857805160ff1916838001178555610fe6565b82800160010185558215610fe6579182015b82811115610fe5578251825591602001919060010190610fca565b5b509050610ff39190610ff7565b5090565b5b80821115611010576000816000905550600101610ff8565b5090565b600061102761102284611893565b61186e565b90508281526020810184848401111561104357611042611af6565b5b61104e8482856119bf565b509392505050565b60008135905061106581611eaa565b92915050565b60008151905061107a81611ec1565b92915050565b600082601f83011261109557611094611af1565b5b81356110a5848260208601611014565b91505092915050565b6000813590506110bd81611ed8565b92915050565b6000815190506110d281611ed8565b92915050565b6000602082840312156110ee576110ed611b00565b5b60006110fc84828501611056565b91505092915050565b60006020828403121561111b5761111a611b00565b5b60006111298482850161106b565b91505092915050565b60006020828403121561114857611147611b00565b5b600082013567ffffffffffffffff81111561116657611165611afb565b5b61117284828501611080565b91505092915050565b6000806040838503121561119257611191611b00565b5b600083013567ffffffffffffffff8111156111b0576111af611afb565b5b6111bc85828601611080565b92505060206111cd85828601611056565b9150509250929050565b600080604083850312156111ee576111ed611b00565b5b600083013567ffffffffffffffff81111561120c5761120b611afb565b5b61121885828601611080565b9250506020611229858286016110ae565b9150509250929050565b6000806000806080858703121561124d5761124c611b00565b5b600085013567ffffffffffffffff81111561126b5761126a611afb565b5b61127787828801611080565b9450506020611288878288016110ae565b9350506040611299878288016110ae565b92505060606112aa878288016110ae565b91505092959194509250565b6000602082840312156112cc576112cb611b00565b5b60006112da848285016110c3565b91505092915050565b6112ec81611941565b82525050565b6112fb81611989565b82525050565b600061130c826118c4565b61131681856118cf565b93506113268185602086016119ce565b61132f81611b05565b840191505092915050565b6000611345826118c4565b61134f81856118e0565b935061135f8185602086016119ce565b80840191505092915050565b60006113786026836118cf565b915061138382611b16565b604082019050919050565b600061139b6019836118cf565b91506113a682611b65565b602082019050919050565b60006113be6037836118cf565b91506113c982611b8e565b604082019050919050565b60006113e16025836118cf565b91506113ec82611bdd565b604082019050919050565b60006114046022836118cf565b915061140f82611c2c565b604082019050919050565b6000611427601a836118cf565b915061143282611c7b565b602082019050919050565b600061144a6023836118cf565b915061145582611ca4565b604082019050919050565b600061146d6020836118cf565b915061147882611cf3565b602082019050919050565b6000611490601a836118cf565b915061149b82611d1c565b602082019050919050565b60006114b36027836118cf565b91506114be82611d45565b604082019050919050565b60006114d6602a836118cf565b91506114e182611d94565b604082019050919050565b60006114f96005836118cf565b915061150482611de3565b602082019050919050565b600061151c6026836118cf565b915061152782611e0c565b604082019050919050565b600061153f6023836118cf565b915061154a82611e5b565b604082019050919050565b61155e8161197f565b82525050565b6000611570828461133a565b915081905092915050565b600060208201905061159060008301846112e3565b92915050565b60006040820190506115ab60008301856112e3565b6115b860208301846112e3565b9392505050565b60006060820190506115d460008301866112e3565b6115e160208301856112e3565b6115ee6040830184611555565b949350505050565b600060408201905061160b60008301856112e3565b6116186020830184611555565b9392505050565b600060208201905061163460008301846112f2565b92915050565b600060408201905081810360008301526116548185611301565b90506116636020830184611555565b9392505050565b600060208201905081810360008301526116838161136b565b9050919050565b600060208201905081810360008301526116a38161138e565b9050919050565b600060208201905081810360008301526116c3816113b1565b9050919050565b600060208201905081810360008301526116e3816113d4565b9050919050565b60006020820190508181036000830152611703816113f7565b9050919050565b600060208201905081810360008301526117238161141a565b9050919050565b600060208201905081810360008301526117438161143d565b9050919050565b6000602082019050818103600083015261176381611460565b9050919050565b6000602082019050818103600083015261178381611483565b9050919050565b600060208201905081810360008301526117a3816114a6565b9050919050565b600060208201905081810360008301526117c3816114c9565b9050919050565b600060208201905081810360008301526117e3816114ec565b9050919050565b600060208201905081810360008301526118038161150f565b9050919050565b6000602082019050818103600083015261182381611532565b9050919050565b600060208201905061183f6000830184611555565b92915050565b600060408201905061185a6000830185611555565b6118676020830184611555565b9392505050565b6000611878611889565b90506118848282611a33565b919050565b6000604051905090565b600067ffffffffffffffff8211156118ae576118ad611ac2565b5b6118b782611b05565b9050602081019050919050565b600081519050919050565b600082825260208201905092915050565b600081905092915050565b60006118f68261197f565b91506119018361197f565b9250827fffffffffffffffffffffffffffffffffffffffffffffffffffffffffffffffff0382111561193657611935611a64565b5b828201905092915050565b600061194c8261195f565b9050919050565b60008115159050919050565b600073ffffffffffffffffffffffffffffffffffffffff82169050919050565b6000819050919050565b60006119948261199b565b9050919050565b60006119a6826119ad565b9050919050565b60006119b88261195f565b9050919050565b82818337600083830152505050565b60005b838110156119ec5780820151818401526020810190506119d1565b838111156119fb576000848401525b50505050565b60006002820490506001821680611a1957607f821691505b60208210811415611a2d57611a2c611a93565b5b50919050565b611a3c82611b05565b810181811067ffffffffffffffff82111715611a5b57611a5a611ac2565b5b80604052505050565b7f4e487b7100000000000000000000000000000000000000000000000000000000600052601160045260246000fd5b7f4e487b7100000000000000000000000000000000000000000000000000000000600052602260045260246000fd5b7f4e487b7100000000000000000000000000000000000000000000000000000000600052604160045260246000fd5b600080fd5b600080fd5b600080fd5b600080fd5b6000601f19601f8301169050919050565b7f4f776e61626c653a206e6577206f776e657220697320746865207a65726f206160008201527f6464726573730000000000000000000000000000000000000000000000000000602082015250565b7f546869732070726f6a65637420646f65736e7420657869737400000000000000600082015250565b7f546869732070726f6a656374207761732066756c6c792066756e64656420626560008201527f666f72652069747320646561646c696e6520656e646564000000000000000000602082015250565b7f596f757220657863656564696e672074686520636f6e747269627574696f6e2060008201527f6c696d6974000000000000000000000000000000000000000000000000000000602082015250565b7f546869732070726f6a65637420686173206265656e2066756c6c792066756e6460008201527f6564000000000000000000000000000000000000000000000000000000000000602082015250565b7f43616e7420636865636b20666f72203078302061646472657373000000000000600082015250565b7f50726f6a65637420646561646c696e652068617320616c72656164792070617360008201527f7365640000000000000000000000000000000000000000000000000000000000602082015250565b7f4f776e61626c653a2063616c6c6572206973206e6f7420746865206f776e6572600082015250565b7f43616e6e6f742061636365707420656d70747920737472696e67000000000000600082015250565b7f412070726f6a65637420776974682074686973206e616d6520616c726561647960008201527f2065786973747300000000000000000000000000000000000000000000000000602082015250565b7f43616e6e6f7420636f6e74726962757465203020746f6b656e7320746f20746860008201527f69732070726f6a65637400000000000000000000000000000000000000000000602082015250565b7f4572726f72000000000000000000000000000000000000000000000000000000600082015250565b7f596f7520646964206e6f7420636f6e7472696275746520746f2074686973207060008201527f726f6a6563740000000000000000000000000000000000000000000000000000602082015250565b7f50726f6a65637420646561646c696e6520686173206e6f74207061737365642060008201527f7965740000000000000000000000000000000000000000000000000000000000602082015250565b611eb381611941565b8114611ebe57600080fd5b50565b611eca81611953565b8114611ed557600080fd5b50565b611ee18161197f565b8114611eec57600080fd5b5056fea2646970667358221220cb465c1374c3148edb2df9097e6aa05da16d5743371312bbc7519bbe0ad463b664736f6c63430008070033",
  "linkReferences": {},
  "deployedLinkReferences": {}
}