{
  "_format": "hh-sol-artifact-1",
  "contractName": "ProjectFunder",
  "sourceName": "contracts/ProjectFunder.sol",
  "abi": [
    {
      "inputs": [
        {
          "internalType": "address",
          "name": "_token",
          "type": "address"
        }
      ],
      "stateMutability": "nonpayable",
      "type": "constructor"
    },
    {
      "anonymous": false,
      "inputs": [
        {
          "indexed": true,
          "internalType": "address",
          "name": "_user",
          "type": "address"
        },
        {
          "indexed": false,
          "internalType": "uint256",
          "name": "amount",
          "type": "uint256"
        },
        {
          "indexed": false,
          "internalType": "uint256",
          "name": "when",
          "type": "uint256"
        }
      ],
      "name": "ContributeToProject",
      "type": "event"
    },
    {
      "anonymous": false,
      "inputs": [
        {
          "indexed": true,
          "internalType": "address",
          "name": "_user",
          "type": "address"
        },
        {
          "indexed": false,
          "internalType": "string",
          "name": "_name",
          "type": "string"
        },
        {
          "indexed": false,
          "internalType": "uint256",
          "name": "when",
          "type": "uint256"
        }
      ],
      "name": "CreateProject",
      "type": "event"
    },
    {
      "anonymous": false,
      "inputs": [
        {
          "indexed": true,
          "internalType": "address",
          "name": "previousOwner",
          "type": "address"
        },
        {
          "indexed": true,
          "internalType": "address",
          "name": "newOwner",
          "type": "address"
        }
      ],
      "name": "OwnershipTransferred",
      "type": "event"
    },
    {
      "anonymous": false,
      "inputs": [
        {
          "indexed": true,
          "internalType": "string",
          "name": "name",
          "type": "string"
        },
        {
          "indexed": false,
          "internalType": "uint256",
          "name": "amount",
          "type": "uint256"
        },
        {
          "indexed": false,
          "internalType": "uint256",
          "name": "when",
          "type": "uint256"
        }
      ],
      "name": "ProjectFunded",
      "type": "event"
    },
    {
      "anonymous": false,
      "inputs": [
        {
          "indexed": true,
          "internalType": "address",
          "name": "_user",
          "type": "address"
        },
        {
          "indexed": false,
          "internalType": "uint256",
          "name": "amount",
          "type": "uint256"
        },
        {
          "indexed": false,
          "internalType": "uint256",
          "name": "when",
          "type": "uint256"
        }
      ],
      "name": "Withdraw",
      "type": "event"
    },
    {
      "inputs": [
        {
          "internalType": "string",
          "name": "_name",
          "type": "string"
        },
        {
          "internalType": "uint256",
          "name": "_amount",
          "type": "uint256"
        }
      ],
      "name": "contribute",
      "outputs": [
        {
          "internalType": "bool",
          "name": "",
          "type": "bool"
        }
      ],
      "stateMutability": "nonpayable",
      "type": "function"
    },
    {
      "inputs": [
        {
          "internalType": "string",
          "name": "_name",
          "type": "string"
        },
        {
          "internalType": "uint256",
          "name": "_deadline",
          "type": "uint256"
        },
        {
          "internalType": "uint256",
          "name": "_fundingGoal",
          "type": "uint256"
        },
        {
          "internalType": "uint256",
          "name": "_contributorLimit",
          "type": "uint256"
        }
      ],
      "name": "createProject",
      "outputs": [
        {
          "internalType": "bool",
          "name": "",
          "type": "bool"
        }
      ],
      "stateMutability": "nonpayable",
      "type": "function"
    },
    {
      "inputs": [],
      "name": "getOwner",
      "outputs": [
        {
          "internalType": "address",
          "name": "",
          "type": "address"
        }
      ],
      "stateMutability": "view",
      "type": "function"
    },
    {
      "inputs": [
        {
          "internalType": "string",
          "name": "_ProjectName",
          "type": "string"
        },
        {
          "internalType": "address",
          "name": "user",
          "type": "address"
        }
      ],
      "name": "getUserContributions",
      "outputs": [
        {
          "internalType": "uint256",
          "name": "",
          "type": "uint256"
        }
      ],
      "stateMutability": "view",
      "type": "function"
    },
    {
      "inputs": [],
      "name": "owner",
      "outputs": [
        {
          "internalType": "address",
          "name": "",
          "type": "address"
        }
      ],
      "stateMutability": "view",
      "type": "function"
    },
    {
      "inputs": [],
      "name": "renounceOwnership",
      "outputs": [],
      "stateMutability": "nonpayable",
      "type": "function"
    },
    {
      "inputs": [],
      "name": "token",
      "outputs": [
        {
          "internalType": "contract IERC20",
          "name": "",
          "type": "address"
        }
      ],
      "stateMutability": "view",
      "type": "function"
    },
    {
      "inputs": [
        {
          "internalType": "address",
          "name": "newOwner",
          "type": "address"
        }
      ],
      "name": "transferOwnership",
      "outputs": [],
      "stateMutability": "nonpayable",
      "type": "function"
    },
    {
      "inputs": [
        {
          "internalType": "string",
          "name": "_name",
          "type": "string"
        }
      ],
      "name": "withdraw",
      "outputs": [
        {
          "internalType": "bool",
          "name": "",
          "type": "bool"
        }
      ],
      "stateMutability": "nonpayable",
      "type": "function"
    }
  ],
  "bytecode": "0x60a06040523480156200001157600080fd5b50604051620024ff380380620024ff83398181016040528101906200003791906200017f565b620000576200004b6200009c60201b60201c565b620000a460201b60201c565b600180819055508073ffffffffffffffffffffffffffffffffffffffff1660808173ffffffffffffffffffffffffffffffffffffffff1660601b8152505050620001f9565b600033905090565b60008060009054906101000a900473ffffffffffffffffffffffffffffffffffffffff169050816000806101000a81548173ffffffffffffffffffffffffffffffffffffffff021916908373ffffffffffffffffffffffffffffffffffffffff1602179055508173ffffffffffffffffffffffffffffffffffffffff168173ffffffffffffffffffffffffffffffffffffffff167f8be0079c531659141344cd1fd0a4f28419497f9722a3daafe3b4186f6b6457e060405160405180910390a35050565b6000815190506200017981620001df565b92915050565b6000602082840312156200019257600080fd5b6000620001a28482850162000168565b91505092915050565b6000620001b882620001bf565b9050919050565b600073ffffffffffffffffffffffffffffffffffffffff82169050919050565b620001ea81620001ab565b8114620001f657600080fd5b50565b60805160601c6122d26200022d6000396000818161042a015281816108ef01528181610c76015261109b01526122d26000f3fe608060405234801561001057600080fd5b50600436106100935760003560e01c80638da5cb5b116100665780638da5cb5b14610120578063ae817f9a1461013e578063c4e0a2521461016e578063f2fde38b1461019e578063fc0c546a146101ba57610093565b806331fb67c214610098578063610a6a2a146100c8578063715018a6146100f8578063893d20e814610102575b600080fd5b6100b260048036038101906100ad9190611427565b6101d8565b6040516100bf9190611d11565b60405180910390f35b6100e260048036038101906100dd9190611510565b61059a565b6040516100ef9190611d11565b60405180910390f35b610100610814565b005b61010a610828565b6040516101179190611c6d565b60405180910390f35b610128610837565b6040516101359190611c6d565b60405180910390f35b610158600480360381019061015391906114bc565b610860565b6040516101659190611d11565b60405180910390f35b61018860048036038101906101839190611468565b610f40565b6040516101959190611fb7565b60405180910390f35b6101b860048036038101906101b391906113d5565b611015565b005b6101c2611099565b6040516101cf9190611d2c565b60405180910390f35b600081600081511415610220576040517f08c379a000000000000000000000000000000000000000000000000000000000815260040161021790611eb7565b60405180910390fd5b6102286110bd565b6001151560028460405161023c9190611c56565b908152602001604051809103902060050160009054906101000a900460ff1615151461029d576040517f08c379a000000000000000000000000000000000000000000000000000000000815260040161029490611d97565b60405180910390fd5b426002846040516102ae9190611c56565b9081526020016040518091039020600101541115610301576040517f08c379a00000000000000000000000000000000000000000000000000000000081526004016102f890611f97565b60405180910390fd5b6002836040516103119190611c56565b9081526020016040518091039020600201546002846040516103339190611c56565b90815260200160405180910390206003015410610385576040517f08c379a000000000000000000000000000000000000000000000000000000000815260040161037c90611db7565b60405180910390fd5b6000600360003373ffffffffffffffffffffffffffffffffffffffff1673ffffffffffffffffffffffffffffffffffffffff168152602001908152602001600020846040516103d49190611c56565b908152602001604051809103902054905060008111610428576040517f08c379a000000000000000000000000000000000000000000000000000000000815260040161041f90611f77565b60405180910390fd5b7f000000000000000000000000000000000000000000000000000000000000000073ffffffffffffffffffffffffffffffffffffffff1663a9059cbb33836040518363ffffffff1660e01b8152600401610483929190611ce8565b602060405180830381600087803b15801561049d57600080fd5b505af11580156104b1573d6000803e3d6000fd5b505050506040513d601f19601f820116820180604052508101906104d591906113fe565b506000600360003373ffffffffffffffffffffffffffffffffffffffff1673ffffffffffffffffffffffffffffffffffffffff168152602001908152602001600020856040516105259190611c56565b9081526020016040518091039020819055503373ffffffffffffffffffffffffffffffffffffffff167ff279e6a1f5e320cca91135676d9cb6e44ca8a08c0b88342bcdb1144f6511b568824260405161057f929190611fd2565b60405180910390a2600192505061059461110d565b50919050565b6000846000815114156105e2576040517f08c379a00000000000000000000000000000000000000000000000000000000081526004016105d990611eb7565b60405180910390fd5b6105ea611116565b6002866040516105fa9190611c56565b908152602001604051809103902060050160009054906101000a900460ff1615610659576040517f08c379a000000000000000000000000000000000000000000000000000000000815260040161065090611ef7565b60405180910390fd5b61066f620151804261119490919063ffffffff16565b85116106b0576040517f08c379a00000000000000000000000000000000000000000000000000000000081526004016106a790611dd7565b60405180910390fd5b600084116106f3576040517f08c379a00000000000000000000000000000000000000000000000000000000081526004016106ea90611e17565b60405180910390fd5b60006040518060c0016040528088815260200187815260200186815260200160008152602001858152602001600115158152509050806002886040516107399190611c56565b90815260200160405180910390206000820151816000019080519060200190610763929190611276565b506020820151816001015560408201518160020155606082015181600301556080820151816004015560a08201518160050160006101000a81548160ff0219169083151502179055509050506107b7610837565b73ffffffffffffffffffffffffffffffffffffffff167fb2030b61df2806f9c0d1c0c2998bfda04213986c819ed2ff79c230c5acf9540288426040516107fe929190611d47565b60405180910390a2600192505050949350505050565b61081c611116565b61082660006111aa565b565b6000610832610837565b905090565b60008060009054906101000a900473ffffffffffffffffffffffffffffffffffffffff16905090565b6000826000815114156108a8576040517f08c379a000000000000000000000000000000000000000000000000000000000815260040161089f90611eb7565b60405180910390fd5b82600081116108ec576040517f08c379a00000000000000000000000000000000000000000000000000000000081526004016108e390611ed7565b60405180910390fd5b807f000000000000000000000000000000000000000000000000000000000000000073ffffffffffffffffffffffffffffffffffffffff1663dd62ed3e33306040518363ffffffff1660e01b8152600401610948929190611c88565b60206040518083038186803b15801561096057600080fd5b505afa158015610974573d6000803e3d6000fd5b505050506040513d601f19601f82011682018060405250810190610998919061158b565b10156109d9576040517f08c379a00000000000000000000000000000000000000000000000000000000081526004016109d090611f37565b60405180910390fd5b600115156002866040516109ed9190611c56565b908152602001604051809103902060050160009054906101000a900460ff16151514610a4e576040517f08c379a0000000000000000000000000000000000000000000000000000000008152600401610a4590611d97565b60405180910390fd5b42600286604051610a5f9190611c56565b90815260200160405180910390206001015411610ab1576040517f08c379a0000000000000000000000000000000000000000000000000000000008152600401610aa890611e77565b60405180910390fd5b600285604051610ac19190611c56565b908152602001604051809103902060020154600286604051610ae39190611c56565b90815260200160405180910390206003015410610b35576040517f08c379a0000000000000000000000000000000000000000000000000000000008152600401610b2c90611e37565b60405180910390fd5b60008411610b78576040517f08c379a0000000000000000000000000000000000000000000000000000000008152600401610b6f90611f17565b60405180910390fd5b6000600286604051610b8a9190611c56565b9081526020016040518091039020600401541115610c7457600285604051610bb29190611c56565b908152602001604051809103902060040154610c3285600360003373ffffffffffffffffffffffffffffffffffffffff1673ffffffffffffffffffffffffffffffffffffffff16815260200190815260200160002088604051610c159190611c56565b90815260200160405180910390205461119490919063ffffffff16565b1115610c73576040517f08c379a0000000000000000000000000000000000000000000000000000000008152600401610c6a90611df7565b60405180910390fd5b5b7f000000000000000000000000000000000000000000000000000000000000000073ffffffffffffffffffffffffffffffffffffffff166323b872dd3330876040518463ffffffff1660e01b8152600401610cd193929190611cb1565b602060405180830381600087803b158015610ceb57600080fd5b505af1158015610cff573d6000803e3d6000fd5b505050506040513d601f19601f82011682018060405250810190610d2391906113fe565b50610d9284600360003373ffffffffffffffffffffffffffffffffffffffff1673ffffffffffffffffffffffffffffffffffffffff16815260200190815260200160002087604051610d759190611c56565b90815260200160405180910390205461119490919063ffffffff16565b600360003373ffffffffffffffffffffffffffffffffffffffff1673ffffffffffffffffffffffffffffffffffffffff16815260200190815260200160002086604051610ddf9190611c56565b908152602001604051809103902081905550610e2584600287604051610e059190611c56565b90815260200160405180910390206003015461119490919063ffffffff16565b600286604051610e359190611c56565b9081526020016040518091039020600301819055503373ffffffffffffffffffffffffffffffffffffffff167ff160665744ac46bd893efd8c6dc0d889bf806fb9d3fc5b2f58c0fc50d2cb46818542604051610e92929190611fd2565b60405180910390a2600285604051610eaa9190611c56565b908152602001604051809103902060020154600286604051610ecc9190611c56565b9081526020016040518091039020600301541415610f345784604051610ef29190611c56565b60405180910390207f3761cfa3b8f7277b95db4ba92d7399be057ecf55ca335ca4e53183b9d5f139038542604051610f2b929190611fd2565b60405180910390a25b60019250505092915050565b60008073ffffffffffffffffffffffffffffffffffffffff168273ffffffffffffffffffffffffffffffffffffffff161415610fb1576040517f08c379a0000000000000000000000000000000000000000000000000000000008152600401610fa890611e57565b60405180910390fd5b600360008373ffffffffffffffffffffffffffffffffffffffff1673ffffffffffffffffffffffffffffffffffffffff16815260200190815260200160002083604051610ffe9190611c56565b908152602001604051809103902054905092915050565b61101d611116565b600073ffffffffffffffffffffffffffffffffffffffff168173ffffffffffffffffffffffffffffffffffffffff16141561108d576040517f08c379a000000000000000000000000000000000000000000000000000000000815260040161108490611d77565b60405180910390fd5b611096816111aa565b50565b7f000000000000000000000000000000000000000000000000000000000000000081565b60026001541415611103576040517f08c379a00000000000000000000000000000000000000000000000000000000081526004016110fa90611f57565b60405180910390fd5b6002600181905550565b60018081905550565b61111e61126e565b73ffffffffffffffffffffffffffffffffffffffff1661113c610837565b73ffffffffffffffffffffffffffffffffffffffff1614611192576040517f08c379a000000000000000000000000000000000000000000000000000000000815260040161118990611e97565b60405180910390fd5b565b600081836111a29190612083565b905092915050565b60008060009054906101000a900473ffffffffffffffffffffffffffffffffffffffff169050816000806101000a81548173ffffffffffffffffffffffffffffffffffffffff021916908373ffffffffffffffffffffffffffffffffffffffff1602179055508173ffffffffffffffffffffffffffffffffffffffff168173ffffffffffffffffffffffffffffffffffffffff167f8be0079c531659141344cd1fd0a4f28419497f9722a3daafe3b4186f6b6457e060405160405180910390a35050565b600033905090565b82805461128290612187565b90600052602060002090601f0160209004810192826112a457600085556112eb565b82601f106112bd57805160ff19168380011785556112eb565b828001600101855582156112eb579182015b828111156112ea5782518255916020019190600101906112cf565b5b5090506112f891906112fc565b5090565b5b808211156113155760008160009055506001016112fd565b5090565b600061132c6113278461202c565b611ffb565b90508281526020810184848401111561134457600080fd5b61134f848285612145565b509392505050565b60008135905061136681612257565b92915050565b60008151905061137b8161226e565b92915050565b600082601f83011261139257600080fd5b81356113a2848260208601611319565b91505092915050565b6000813590506113ba81612285565b92915050565b6000815190506113cf81612285565b92915050565b6000602082840312156113e757600080fd5b60006113f584828501611357565b91505092915050565b60006020828403121561141057600080fd5b600061141e8482850161136c565b91505092915050565b60006020828403121561143957600080fd5b600082013567ffffffffffffffff81111561145357600080fd5b61145f84828501611381565b91505092915050565b6000806040838503121561147b57600080fd5b600083013567ffffffffffffffff81111561149557600080fd5b6114a185828601611381565b92505060206114b285828601611357565b9150509250929050565b600080604083850312156114cf57600080fd5b600083013567ffffffffffffffff8111156114e957600080fd5b6114f585828601611381565b9250506020611506858286016113ab565b9150509250929050565b6000806000806080858703121561152657600080fd5b600085013567ffffffffffffffff81111561154057600080fd5b61154c87828801611381565b945050602061155d878288016113ab565b935050604061156e878288016113ab565b925050606061157f878288016113ab565b91505092959194509250565b60006020828403121561159d57600080fd5b60006115ab848285016113c0565b91505092915050565b6115bd816120d9565b82525050565b6115cc816120eb565b82525050565b6115db81612121565b82525050565b60006115ec8261205c565b6115f68185612067565b9350611606818560208601612154565b61160f81612246565b840191505092915050565b60006116258261205c565b61162f8185612078565b935061163f818560208601612154565b80840191505092915050565b6000611658602683612067565b91507f4f776e61626c653a206e6577206f776e657220697320746865207a65726f206160008301527f64647265737300000000000000000000000000000000000000000000000000006020830152604082019050919050565b60006116be601983612067565b91507f546869732070726f6a65637420646f65736e74206578697374000000000000006000830152602082019050919050565b60006116fe603783612067565b91507f546869732070726f6a656374207761732066756c6c792066756e64656420626560008301527f666f72652069747320646561646c696e6520656e6465640000000000000000006020830152604082019050919050565b6000611764601d83612067565b91507f4d696e696d756d20646561646c696e65206f6620323420686f757273210000006000830152602082019050919050565b60006117a4602583612067565b91507f596f757220657863656564696e672074686520636f6e747269627574696f6e2060008301527f6c696d69740000000000000000000000000000000000000000000000000000006020830152604082019050919050565b600061180a602383612067565b91507f43616e6e6f74207365742066756e64696e6720676f616c206f66203020746f6b60008301527f656e7300000000000000000000000000000000000000000000000000000000006020830152604082019050919050565b6000611870602283612067565b91507f546869732070726f6a65637420686173206265656e2066756c6c792066756e6460008301527f65640000000000000000000000000000000000000000000000000000000000006020830152604082019050919050565b60006118d6601a83612067565b91507f43616e7420636865636b20666f722030783020616464726573730000000000006000830152602082019050919050565b6000611916602383612067565b91507f50726f6a65637420646561646c696e652068617320616c72656164792070617360008301527f73656400000000000000000000000000000000000000000000000000000000006020830152604082019050919050565b600061197c602083612067565b91507f4f776e61626c653a2063616c6c6572206973206e6f7420746865206f776e65726000830152602082019050919050565b60006119bc601a83612067565b91507f43616e6e6f742061636365707420656d70747920737472696e670000000000006000830152602082019050919050565b60006119fc601083612067565b91507f616d6f756e742063616e742062652030000000000000000000000000000000006000830152602082019050919050565b6000611a3c602783612067565b91507f412070726f6a65637420776974682074686973206e616d6520616c726561647960008301527f20657869737473000000000000000000000000000000000000000000000000006020830152604082019050919050565b6000611aa2602a83612067565b91507f43616e6e6f7420636f6e74726962757465203020746f6b656e7320746f20746860008301527f69732070726f6a656374000000000000000000000000000000000000000000006020830152604082019050919050565b6000611b08600583612067565b91507f4572726f720000000000000000000000000000000000000000000000000000006000830152602082019050919050565b6000611b48601f83612067565b91507f5265656e7472616e637947756172643a207265656e7472616e742063616c6c006000830152602082019050919050565b6000611b88602683612067565b91507f596f7520646964206e6f7420636f6e7472696275746520746f2074686973207060008301527f726f6a65637400000000000000000000000000000000000000000000000000006020830152604082019050919050565b6000611bee602383612067565b91507f50726f6a65637420646561646c696e6520686173206e6f74207061737365642060008301527f79657400000000000000000000000000000000000000000000000000000000006020830152604082019050919050565b611c5081612117565b82525050565b6000611c62828461161a565b915081905092915050565b6000602082019050611c8260008301846115b4565b92915050565b6000604082019050611c9d60008301856115b4565b611caa60208301846115b4565b9392505050565b6000606082019050611cc660008301866115b4565b611cd360208301856115b4565b611ce06040830184611c47565b949350505050565b6000604082019050611cfd60008301856115b4565b611d0a6020830184611c47565b9392505050565b6000602082019050611d2660008301846115c3565b92915050565b6000602082019050611d4160008301846115d2565b92915050565b60006040820190508181036000830152611d6181856115e1565b9050611d706020830184611c47565b9392505050565b60006020820190508181036000830152611d908161164b565b9050919050565b60006020820190508181036000830152611db0816116b1565b9050919050565b60006020820190508181036000830152611dd0816116f1565b9050919050565b60006020820190508181036000830152611df081611757565b9050919050565b60006020820190508181036000830152611e1081611797565b9050919050565b60006020820190508181036000830152611e30816117fd565b9050919050565b60006020820190508181036000830152611e5081611863565b9050919050565b60006020820190508181036000830152611e70816118c9565b9050919050565b60006020820190508181036000830152611e9081611909565b9050919050565b60006020820190508181036000830152611eb08161196f565b9050919050565b60006020820190508181036000830152611ed0816119af565b9050919050565b60006020820190508181036000830152611ef0816119ef565b9050919050565b60006020820190508181036000830152611f1081611a2f565b9050919050565b60006020820190508181036000830152611f3081611a95565b9050919050565b60006020820190508181036000830152611f5081611afb565b9050919050565b60006020820190508181036000830152611f7081611b3b565b9050919050565b60006020820190508181036000830152611f9081611b7b565b9050919050565b60006020820190508181036000830152611fb081611be1565b9050919050565b6000602082019050611fcc6000830184611c47565b92915050565b6000604082019050611fe76000830185611c47565b611ff46020830184611c47565b9392505050565b6000604051905081810181811067ffffffffffffffff8211171561202257612021612217565b5b8060405250919050565b600067ffffffffffffffff82111561204757612046612217565b5b601f19601f8301169050602081019050919050565b600081519050919050565b600082825260208201905092915050565b600081905092915050565b600061208e82612117565b915061209983612117565b9250827fffffffffffffffffffffffffffffffffffffffffffffffffffffffffffffffff038211156120ce576120cd6121b9565b5b828201905092915050565b60006120e4826120f7565b9050919050565b60008115159050919050565b600073ffffffffffffffffffffffffffffffffffffffff82169050919050565b6000819050919050565b600061212c82612133565b9050919050565b600061213e826120f7565b9050919050565b82818337600083830152505050565b60005b83811015612172578082015181840152602081019050612157565b83811115612181576000848401525b50505050565b6000600282049050600182168061219f57607f821691505b602082108114156121b3576121b26121e8565b5b50919050565b7f4e487b7100000000000000000000000000000000000000000000000000000000600052601160045260246000fd5b7f4e487b7100000000000000000000000000000000000000000000000000000000600052602260045260246000fd5b7f4e487b7100000000000000000000000000000000000000000000000000000000600052604160045260246000fd5b6000601f19601f8301169050919050565b612260816120d9565b811461226b57600080fd5b50565b612277816120eb565b811461228257600080fd5b50565b61228e81612117565b811461229957600080fd5b5056fea2646970667358221220de8981c638250486aa202509cd04de2b5065ae26d2f85da2b72877c2a9bcd4e964736f6c63430008000033",
  "linkReferences": {},
  "deployedLinkReferences": {}
}